:020000040800F2
:10000000380400200D0D0008D50C0008D70C00089E
:10001000D90C0008DB0C0008DD0C00080000000013
:10002000000000000000000000000000DF0C0008DD
:10003000E10C000800000000E30C0008E50C0008DB
:10004000290D00082D0D0008310D0008350D0008A0
:10005000390D00083D0D0008410D0008450D000850
:10006000490D00084D0D0008510D0008550D000800
:10007000590D00085D0D0008610D0008650D0008B0
:10008000690D00086D0D0008710D0008750D000860
:10009000790D00087D0D0008810D0008850D000810
:1000A000890D00088D0D0008910D0008950D0008C0
:1000B000990D00089D0D0008A10D0008A50D000870
:1000C000A90D0008AD0D0008B10D0008B50D000820
:1000D000B90D0008BD0D0008C10D0008C50D0008D0
:1000E000C90D0008CD0D0008D10D0008D50D000880
:1000F000D90D0008DD0D0008E10D0008E50D000830
:10010000E90D0008ED0D0008F10D0008F50D0008DF
:10011000F90D0008FD0D0008010E0008050E00088D
:10012000090E00080D0E0008110E0008150E00083B
:100130002DE9F843040016D02078DFF84C64C1079D
:1001400013D5706800F00C00042807D0706800F028
:100150000C00082841D17068C1033ED53068810386
:1001600003D56068002800F064812078DFF82874E7
:10017000810719D5706810F00C0F07D0706800F077
:100180000C00082861D17068C1035ED43068810713
:1001900003D52069012840F04C813168606921F065
:1001A000F80141EAC00131602178080740F18180FF
:1001B000A069DFF8E813002800F0A68001220A6099
:1001C00000F002FA0546706A810763D400F0FCF97A
:1001D000401B0228F7D903202EE16068B0F5803F6C
:1001E00004D1306840F48030306014E008B93068E1
:1001F0000AE0B0F5A02F306806D140F480203060CE
:10020000316841F4803105E020F48030306031689D
:1002100021F480213160606858B100F0D5F90546BD
:1002200030688103A1D400F0CFF9401B6528F7D3D3
:10023000D1E700F0C9F905463068810395D500F093
:10024000C3F9401B6528F7D3C5E72069A8B1012190
:10025000396000F0B9F905463068810705D400F02F
:10026000B3F9401B0228F7D9B5E73068616920F07F
:10027000F80040EAC100306096E7386000F0A4F969
:100280000546316888078FD500F09EF9401B02288B
:10029000F7D9A0E7DFF8F4020168C9084FF47A72D1
:1002A000B1FBF2F2009200BF0098411E00280091BD
:1002B000F9D1207841076ED5F0690025C10009D435
:1002C000F06940F08050F0610125F06900F0805045
:1002D00000900098DFF8C882D8F80000C10520D44B
:1002E000D8F8000040F48070C8F8000000F06CF905
:1002F0008146D8F80000C10513D400F065F9A0EBE1
:1003000009006528F5D366E7086000F05DF9054649
:10031000706A8107CDD500F057F9401B0228F7D944
:1003200059E7E068012808D008B9306A09E00528D3
:10033000306A06D140F004003062306A40F00100BB
:1003400005E0400840003062306A20F0040030626E
:1003500041F28938E06860B100F036F98146306AD0
:10036000810713D400F030F9A0EB09004045F6D323
:1003700031E700F029F98146306A810706D500F09F
:1003800023F9A0EB09004045F6D324E71DB1F0693D
:1003900020F08050F061E06900284CD0716801F0D5
:1003A0000C01082938D002282AD100F047F8054668
:1003B0003068810105D500F007F9401B0228F7D904
:1003C00009E7206AB0F5803F05D17168A06821F483
:1003D0000031014371607268206A616A22F474120C
:1003E00002430A437260012000F029F80446306895
:1003F000810120D400F0E8F8001B0228F7D9EAE6D2
:1004000000F01CF804463068810114D500F0DCF8D7
:10041000001B0228F7D9DEE601280AD07068226A9C
:1004200000F48031914202BF00F47010616A88428A
:1004300001D0012000E00020BDE8F28300203866F2
:1004400000F0C2B82DE9F041040088464ED0554E68
:1004500000F077F802D200F06FF847D120684A4DDB
:10046000810712D5400703D5696841F4E0616960EE
:100470002078010703D5686840F4605068606968B7
:10048000A06821F0F001014369602178C80725D5F3
:100490006068012802D129688A0303E002282968DC
:1004A00002D18A0102D421E08A071FD56968890830
:1004B00040EA8100686000F087F807466868616874
:1004C00000F00C00B0EB810F08D000F07DF8C01BED
:1004D00041F289318842F1D303202BE0306800F0EB
:1004E0000700804504D200F027F801D0012021E068
:1004F0002078410705D56A68E06822F4E06202438B
:100500006A602178080706D56968206921F460517E
:1005100041EAC001696000F019F86A6822491B4B82
:10052000C2F30312895CC84018601A48006800F0E2
:1005300051F80020BDE8F0813168C90848EAC101DE
:100540003160306800F00700404570471749104897
:100550000A6802F00C03082B00D0704710B500BFEA
:1005600014A4C2F38343D203E35C08D5096858435B
:1005700014A3C1F340415A5CB0FBF2F010BD184621
:100580000B49484310BD0000001002402400002029
:1005900000127A0020000020000042428004424203
:1005A0000070004000200240FC0C000804100240D3
:1005B00000093D0002030405060708090A0B0C0D9B
:1005C0000E0F10100102000001484068704700BF84
:1005D0001800002038B50D4D0D4B2A7804464FF415
:1005E0007A711868B1FBF2F2B0FBF2F000F049F852
:1005F00050B9102C08D2002221464FF0FF3000F0F5
:1006000023F8AC60002032BD012032BD180000206C
:10061000240000200901020002D4244881547047BC
:10062000234B02F00F021A4402F8041C7047214BBE
:1006300019684FF6FF020002114000F4E060084321
:100640001D4908431860704770B51A4B1C68C4F305
:1006500002230124C3F10705052D2EBF0F2504FA3F
:1006600005F56D1E1E1D072E34BF0023DB1E29401D
:10067000994004FA03F3BDE870405B1E1A40114331
:10068000C8E710B5401EB0F1807F01D3012010BD36
:100690000A4C60600F214FF0FF30FFF7BBFF0021D5
:1006A000A16007202060002010BD000000E400E0F1
:1006B00018ED00E00CED00E00000FA0510E000E0AD
:1006C0002DE9F8474FF0000E0024644A644BDFF830
:1006D00094814FF00F0982460CE017683840106093
:1006E00006E055604D68ED03F7D5106807431760C5
:1006F0000EF1010E0F6837FA0EF000F0A98001200C
:1007000000FA0EF63740B742F2D1486838B30128F4
:100710001AD002281DD003282ED0112816D0122856
:100720001AD0514DA8421CBF504DA84217D0504D71
:10073000A8421CBF4F4DA84211D04F4DA8421CBF2C
:100740004E4DA8420BD018E0CC6816E0CC68241DB2
:1007500013E0CC68083410E0CC680C340DE08868F5
:1007600008B9042409E0012819BF0824CAF8146054
:100770000824CAF8106000E00024B7F5807F03D297
:1007800050464FEA8E0C05E0AEF108050AF1040070
:100790004FEA850C056809FA0CF6B54304FA0CF625
:1007A000354305604868C000A2D5D8F8000040F085
:1007B0000100C8F80000D8F8005005F001050095C8
:1007C0004FEA8E0500984FEA9E0053F8206005F02E
:1007D0000C0C09FA0CF526EA0505294EB24508BFAE
:1007E000002618D0274EB24508BF012613D0264E4A
:1007F000B24508BF02260ED0244EB24508BF0326DC
:1008000009D0234EB24508BF042604D0214EB2457C
:100810000CBF0526062606FA0CF6354343F8205091
:10082000F8434D68ED0295684CBF3D430540956027
:100830004D68AD02D5684CBF3D430540D5604D685D
:100840005668AD034CBF47EA060500EA060548E7CF
:10085000BDE8F18702B90904016170470004014055
:100860000800014018100240000011100000121092
:100870000000211000002210000031100000321092
:1008800000080140000C014000100140001401402C
:1008900000180140001C014018B585B0102200214D
:1008A00001A800F037F81948194C016841F02001FF
:1008B0000160026802F0200200920099026842F092
:1008C00010020260036803F01003009300990268AD
:1008D00042F0040202600022006800F00400009070
:1008E0004FF4407100982046FFF7B4FF4FF4407179
:1008F000019101220292002103910222049201A996
:100900002046FFF7DDFE06B010BD00BF1810024004
:100910000010014010B5044610460A460146204624
:1009200000F002F8204610BD62F30F2262F31F426E
:10093000401810F0030308D0C91A1FD3DB0748BFC3
:1009400000F8012D28BF20F8022D130030B4144602
:100950001546103928BF20E93C00FAD8490728BFBE
:1009600020E90C0048BF40F8042D890028BF20F87A
:10097000022D48BF00F8012D30BC7047C91818BFC0
:1009800000F8012DCB0728BF00F8012D704700B5F6
:100990008FB02822002105A8FFF7BCFF14220021F8
:1009A0006846FFF7B7FF0921059101234FF4803115
:1009B000069109930B930D91002202234FF4E0114D
:1009C00007920C930E9105A8FFF7B2FB08B172B61F
:1009D000FEE7022101910F204FF480610090002278
:1009E00003910292049202216846FFF72BFD08B1A1
:1009F00072B6FEE70FB000BD72B6FEE7002383605B
:100A0000C3600160828070478188006809040161C9
:100A10007047F8B504460D461746FFF7D5FDA060B0
:100A2000E1680E4E401AB84208D3307830B92168D8
:100A3000A088086101223270A068E060A168E068C7
:100A4000091AA94209D33178012906D12046FFF7B6
:100A5000DBFF00203070A168E160F1BD34000020B0
:100A600038B5040001D1012032BD20684CF6CC41DC
:100A7000016045F25552026063684360A16881607D
:100A8000FFF7A2FD05462068C16811F0030F0DD0E5
:100A9000FFF79AFD401B41F23D318842F3D32068B5
:100AA000C16811F0030FEED0032032BD4AF6AA212F
:100AB0000160002032BD00684AF6AA2101600020D2
:100AC000704700004FF4807212491348FFF796BF39
:100AD00038B500F027F8FFF75AFFFFF7DDFE00F00A
:100AE00033F806240D4D2A68A888D368034218BF3E
:100AF00000041061642000F03DF8641EF3D1C822A8
:100B00004FF47A7105F10800FFF783FF0448FFF7FF
:100B1000D2FFF4E700100140080000200000002090
:100B20002800002080B50748016841F010010160ED
:100B30000320FFF77CFD0F20FFF74CFD00F02EF89F
:100B4000002002BD0020024080B508480849042268
:100B500040F25273016042608360FFF781FF18B179
:100B6000BDE80140FFF748BF01BD00BF28000020DD
:100B70000030004038B50446FFF726FD14F1010FA0
:100B8000054602D0044908780419FFF71DFD401BF3
:100B9000A042FAD331BD00BF180000200E4881B03A
:100BA000016841F001010160026802F00102009257
:100BB0000099426842F080524260406800F08050E4
:100BC000009000980548016821F0E06141F0007153
:100BD000016001B0704700BF1810024004000140DE
:100BE00030B5016884684218416802EB5103C907B7
:100BF00003D54C4401E0491C05D19A420AD012F9B0
:100C0000011B12F8015B002904F8015BF3D4491EB3
:100C1000F7D5F2E70C3030BD10B5074979441831EB
:100C2000064C7C44163404E00A68081D11448847C9
:100C30000146A142F8D110BD0800000018000000D4
:100C4000A1FFFFFFD80100002C00000000000020E1
:100C50000500000010B50446044979440E310448EB
:100C600078440C3000F006F8204610BDB0010000BA
:100C7000A801000038B504460D46AC4205D02068F6
:100C800020188047241DAC42F9D131BD00F00DF889
:100C9000002801D0FFF7C0FFAFF300800020AFF3C2
:100CA0000080FFF715FF00F002F80120704700F008
:100CB00001B800000746384600F002F8FBE70000E4
:100CC00080B5AFF30080024A11001820ABBEFBE7ED
:100CD00026000200FEE7FEE7FEE7FEE7FEE77047BC
:100CE0007047704700F000B802494A6808788218D7
:100CF0004A607047180000207047000000000000A4
:100D000000000000010203040607080901488047AB
:100D100001480047F90C00081D0D0008AFF30080E2
:100D2000AFF30080FFF7B2FFFFF7FEBFFFF7FEBF94
:100D3000FFF7FEBFFFF7FEBFFFF7FEBFFFF7FEBFE7
:100D4000FFF7FEBFFFF7FEBFFFF7FEBFFFF7FEBFD7
:100D5000FFF7FEBFFFF7FEBFFFF7FEBFFFF7FEBFC7
:100D6000FFF7FEBFFFF7FEBFFFF7FEBFFFF7FEBFB7
:100D7000FFF7FEBFFFF7FEBFFFF7FEBFFFF7FEBFA7
:100D8000FFF7FEBFFFF7FEBFFFF7FEBFFFF7FEBF97
:100D9000FFF7FEBFFFF7FEBFFFF7FEBFFFF7FEBF87
:100DA000FFF7FEBFFFF7FEBFFFF7FEBFFFF7FEBF77
:100DB000FFF7FEBFFFF7FEBFFFF7FEBFFFF7FEBF67
:100DC000FFF7FEBFFFF7FEBFFFF7FEBFFFF7FEBF57
:100DD000FFF7FEBFFFF7FEBFFFF7FEBFFFF7FEBF47
:100DE000FFF7FEBFFFF7FEBFFFF7FEBFFFF7FEBF37
:100DF000FFF7FEBFFFF7FEBFFFF7FEBFFFF7FEBF27
:100E0000FFF7FEBFFFF7FEBFFFF7FEBFFFF7FEBF16
:100E1000FFF7FEBFFFF7FEBFADFCFFFF05001001AF
:100E2000400002EE000001F9000010FC0001127AFF
:020E3000F200CE
:0400000508000D1DC5
:00000001FF
